:08000000803102288731FD2F39
:100EE6007108F5007008F400080044018F019101B3
:100EF60005309300920194010800873178278731E5
:100F06008731B727873187318A2787310800410122
:100F16000C100B140030F0000030F10087317327FD
:100F260087310800873180278731400198141530B2
:100F3600F3004B30F200BE30890B9F2FF20B9F2F30
:100F4600F30B9F2F0032400198101530F3004B3001
:100F5600F200BE30890BAD2FF20BAD2FF30BAD2F88
:100F66000032982F803102284001980199019A0198
:100F76009B019C01FD309200FF309300FF309400EE
:100F8600FF3095000F309600FD307D018C00FF305C
:100F96009600FF30A000FF30AA000730B4008D0194
:100FA6009701A101AB01B5018E019801A201AC0127
:100FB600B601FF308F00FF309900FF30A300FF30ED
:100FC600AD000730B700FF309000FF309A00FF30C9
:100FD600A400FF30AE000F30B800910192019301DA
:100FE6009B019C019D01A501A601A701B901BA01BA
:0A0FF600BB01080040018731952F70
:020000040001F9
:04000E008F3FE73FFA
:04001400FF3FFF3F6C
:00000001FF
